{
  "_format": "hh-sol-artifact-1",
  "contractName": "Message",
  "sourceName": "contracts/Message.sol",
  "abi": [
    {
      "inputs": [],
      "stateMutability": "nonpayable",
      "type": "constructor"
    },
    {
      "anonymous": false,
      "inputs": [
        {
          "indexed": false,
          "internalType": "address",
          "name": "setter",
          "type": "address"
        },
        {
          "indexed": false,
          "internalType": "string",
          "name": "message",
          "type": "string"
        }
      ],
      "name": "MessageSet",
      "type": "event"
    },
    {
      "anonymous": false,
      "inputs": [
        {
          "indexed": false,
          "internalType": "address",
          "name": "previousOwner",
          "type": "address"
        },
        {
          "indexed": false,
          "internalType": "address",
          "name": "newOwner",
          "type": "address"
        }
      ],
      "name": "OwnershipTransfer",
      "type": "event"
    },
    {
      "inputs": [],
      "name": "getMessage",
      "outputs": [
        {
          "internalType": "string",
          "name": "",
          "type": "string"
        }
      ],
      "stateMutability": "view",
      "type": "function"
    },
    {
      "inputs": [],
      "name": "message",
      "outputs": [
        {
          "internalType": "string",
          "name": "",
          "type": "string"
        }
      ],
      "stateMutability": "view",
      "type": "function"
    },
    {
      "inputs": [],
      "name": "owner",
      "outputs": [
        {
          "internalType": "address",
          "name": "",
          "type": "address"
        }
      ],
      "stateMutability": "view",
      "type": "function"
    },
    {
      "inputs": [
        {
          "internalType": "string",
          "name": "_message",
          "type": "string"
        }
      ],
      "name": "setMessage",
      "outputs": [],
      "stateMutability": "nonpayable",
      "type": "function"
    },
    {
      "inputs": [
        {
          "internalType": "address",
          "name": "_newOwner",
          "type": "address"
        }
      ],
      "name": "transferOwnership",
      "outputs": [],
      "stateMutability": "nonpayable",
      "type": "function"
    }
  ],
  "bytecode": "0x6080604052348015600f57600080fd5b50336000806101000a81548173ffffffffffffffffffffffffffffffffffffffff021916908373ffffffffffffffffffffffffffffffffffffffff160217905550610d738061005f6000396000f3fe608060405234801561001057600080fd5b50600436106100575760003560e01c8063368b87721461005c5780638da5cb5b14610078578063ce6d41de14610096578063e21f37ce146100b4578063f2fde38b146100d2575b600080fd5b6100766004803603810190610071919061066f565b6100ee565b005b610080610238565b60405161008d91906106f9565b60405180910390f35b61009e61025c565b6040516100ab9190610793565b60405180910390f35b6100bc6102ee565b6040516100c99190610793565b60405180910390f35b6100ec60048036038101906100e791906107e1565b61037c565b005b600073ffffffffffffffffffffffffffffffffffffffff163373ffffffffffffffffffffffffffffffffffffffff160361015d576040517f08c379a00000000000000000000000000000000000000000000000000000000081526004016101549061085a565b60405180910390fd5b60008054906101000a900473ffffffffffffffffffffffffffffffffffffffff1673ffffffffffffffffffffffffffffffffffffffff163373ffffffffffffffffffffffffffffffffffffffff16146101eb576040517f08c379a00000000000000000000000000000000000000000000000000000000081526004016101e2906108c6565b60405180910390fd5b80600190816101fa9190610afc565b507f93fae8d45f984617bf4db97b9e45b32ce771ddcb02cf1ef852199d13af04a3e233600160405161022d929190610c52565b60405180910390a150565b60008054906101000a900473ffffffffffffffffffffffffffffffffffffffff1681565b60606001805461026b90610915565b80601f016020809104026020016040519081016040528092919081815260200182805461029790610915565b80156102e45780601f106102b9576101008083540402835291602001916102e4565b820191906000526020600020905b8154815290600101906020018083116102c757829003601f168201915b5050505050905090565b600180546102fb90610915565b80601f016020809104026020016040519081016040528092919081815260200182805461032790610915565b80156103745780601f1061034957610100808354040283529160200191610374565b820191906000526020600020905b81548152906001019060200180831161035757829003601f168201915b505050505081565b60008054906101000a900473ffffffffffffffffffffffffffffffffffffffff1673ffffffffffffffffffffffffffffffffffffffff163373ffffffffffffffffffffffffffffffffffffffff161461040a576040517f08c379a0000000000000000000000000000000000000000000000000000000008152600401610401906108c6565b60405180910390fd5b600073ffffffffffffffffffffffffffffffffffffffff163373ffffffffffffffffffffffffffffffffffffffff1603610479576040517f08c379a000000000000000000000000000000000000000000000000000000000815260040161047090610cf4565b60405180910390fd5b7f22500af037c600dd7b720644ab6e358635085601d9ac508ad83eb2d6b2d729ca60008054906101000a900473ffffffffffffffffffffffffffffffffffffffff16826040516104ca929190610d14565b60405180910390a1806000806101000a81548173ffffffffffffffffffffffffffffffffffffffff021916908373ffffffffffffffffffffffffffffffffffffffff16021790555050565b6000604051905090565b600080fd5b600080fd5b600080fd5b600080fd5b6000601f19601f8301169050919050565b7f4e487b7100000000000000000000000000000000000000000000000000000000600052604160045260246000fd5b61057c82610533565b810181811067ffffffffffffffff8211171561059b5761059a610544565b5b80604052505050565b60006105ae610515565b90506105ba8282610573565b919050565b600067ffffffffffffffff8211156105da576105d9610544565b5b6105e382610533565b9050602081019050919050565b82818337600083830152505050565b600061061261060d846105bf565b6105a4565b90508281526020810184848401111561062e5761062d61052e565b5b6106398482856105f0565b509392505050565b600082601f83011261065657610655610529565b5b81356106668482602086016105ff565b91505092915050565b6000602082840312156106855761068461051f565b5b600082013567ffffffffffffffff8111156106a3576106a2610524565b5b6106af84828501610641565b91505092915050565b600073ffffffffffffffffffffffffffffffffffffffff82169050919050565b60006106e3826106b8565b9050919050565b6106f3816106d8565b82525050565b600060208201905061070e60008301846106ea565b92915050565b600081519050919050565b600082825260208201905092915050565b60005b8381101561074e578082015181840152602081019050610733565b60008484015250505050565b600061076582610714565b61076f818561071f565b935061077f818560208601610730565b61078881610533565b840191505092915050565b600060208201905081810360008301526107ad818461075a565b905092915050565b6107be816106d8565b81146107c957600080fd5b50565b6000813590506107db816107b5565b92915050565b6000602082840312156107f7576107f661051f565b5b6000610805848285016107cc565b91505092915050565b7f596f752063616e6e6f742073657420796f7572206f776e206d65737361676500600082015250565b6000610844601f8361071f565b915061084f8261080e565b602082019050919050565b6000602082019050818103600083015261087381610837565b9050919050565b7f596f7520617265206e6f7420746865206f776e65720000000000000000000000600082015250565b60006108b060158361071f565b91506108bb8261087a565b602082019050919050565b600060208201905081810360008301526108df816108a3565b9050919050565b7f4e487b7100000000000000000000000000000000000000000000000000000000600052602260045260246000fd5b6000600282049050600182168061092d57607f821691505b6020821081036109405761093f6108e6565b5b50919050565b60008190508160005260206000209050919050565b60006020601f8301049050919050565b600082821b905092915050565b6000600883026109a87fffffffffffffffffffffffffffffffffffffffffffffffffffffffffffffffff8261096b565b6109b2868361096b565b95508019841693508086168417925050509392505050565b6000819050919050565b6000819050919050565b60006109f96109f46109ef846109ca565b6109d4565b6109ca565b9050919050565b6000819050919050565b610a13836109de565b610a27610a1f82610a00565b848454610978565b825550505050565b600090565b610a3c610a2f565b610a47818484610a0a565b505050565b5b81811015610a6b57610a60600082610a34565b600181019050610a4d565b5050565b601f821115610ab057610a8181610946565b610a8a8461095b565b81016020851015610a99578190505b610aad610aa58561095b565b830182610a4c565b50505b505050565b600082821c905092915050565b6000610ad360001984600802610ab5565b1980831691505092915050565b6000610aec8383610ac2565b9150826002028217905092915050565b610b0582610714565b67ffffffffffffffff811115610b1e57610b1d610544565b5b610b288254610915565b610b33828285610a6f565b600060209050601f831160018114610b665760008415610b54578287015190505b610b5e8582610ae0565b865550610bc6565b601f198416610b7486610946565b60005b82811015610b9c57848901518255600182019150602085019450602081019050610b77565b86831015610bb95784890151610bb5601f891682610ac2565b8355505b6001600288020188555050505b505050505050565b60008154610bdb81610915565b610be5818661071f565b94506001821660008114610c005760018114610c1657610c49565b60ff198316865281151560200286019350610c49565b610c1f85610946565b60005b83811015610c4157815481890152600182019150602081019050610c22565b808801955050505b50505092915050565b6000604082019050610c6760008301856106ea565b8181036020830152610c798184610bce565b90509392505050565b7f596f752063616e6e6f74207472616e73666572206f776e65727368697020746f60008201527f2061646472657373207a65726f00000000000000000000000000000000000000602082015250565b6000610cde602d8361071f565b9150610ce982610c82565b604082019050919050565b60006020820190508181036000830152610d0d81610cd1565b9050919050565b6000604082019050610d2960008301856106ea565b610d3660208301846106ea565b939250505056fea26469706673582212209d03776653ba3a7a3be4f902d5d7426f6e7f3a1c2a26089841282a41cedfaf8764736f6c634300081b0033",
  "linkReferences": {},
  "deployedLinkReferences": {}
}